{
  "contractName": "cert",
  "abi": [
    {
      "inputs": [],
      "stateMutability": "nonpayable",
      "type": "constructor"
    },
    {
      "anonymous": false,
      "inputs": [
        {
          "indexed": true,
          "internalType": "uint256",
          "name": "certificateId",
          "type": "uint256"
        },
        {
          "indexed": true,
          "internalType": "address",
          "name": "studentAddress",
          "type": "address"
        },
        {
          "indexed": false,
          "internalType": "uint256",
          "name": "issueDate",
          "type": "uint256"
        },
        {
          "indexed": false,
          "internalType": "string",
          "name": "ipfsHash",
          "type": "string"
        }
      ],
      "name": "CertificateIssued",
      "type": "event"
    },
    {
      "anonymous": false,
      "inputs": [
        {
          "indexed": true,
          "internalType": "uint256",
          "name": "certificateId",
          "type": "uint256"
        },
        {
          "indexed": false,
          "internalType": "bool",
          "name": "status",
          "type": "bool"
        }
      ],
      "name": "CertificateVerified",
      "type": "event"
    },
    {
      "inputs": [],
      "name": "admin",
      "outputs": [
        {
          "internalType": "address",
          "name": "",
          "type": "address"
        }
      ],
      "stateMutability": "view",
      "type": "function",
      "constant": true
    },
    {
      "inputs": [
        {
          "internalType": "uint256",
          "name": "",
          "type": "uint256"
        }
      ],
      "name": "certificates",
      "outputs": [
        {
          "internalType": "uint256",
          "name": "id",
          "type": "uint256"
        },
        {
          "internalType": "address",
          "name": "studentAddress",
          "type": "address"
        },
        {
          "internalType": "string",
          "name": "studentName",
          "type": "string"
        },
        {
          "internalType": "string",
          "name": "studentId",
          "type": "string"
        },
        {
          "internalType": "string",
          "name": "university",
          "type": "string"
        },
        {
          "internalType": "uint256",
          "name": "issueDate",
          "type": "uint256"
        },
        {
          "internalType": "bool",
          "name": "isVerified",
          "type": "bool"
        },
        {
          "internalType": "address",
          "name": "issuedBy",
          "type": "address"
        },
        {
          "internalType": "string",
          "name": "ipfsHash",
          "type": "string"
        }
      ],
      "stateMutability": "view",
      "type": "function",
      "constant": true
    },
    {
      "inputs": [
        {
          "internalType": "string",
          "name": "",
          "type": "string"
        }
      ],
      "name": "ipfsToId",
      "outputs": [
        {
          "internalType": "uint256",
          "name": "",
          "type": "uint256"
        }
      ],
      "stateMutability": "view",
      "type": "function",
      "constant": true
    },
    {
      "inputs": [
        {
          "internalType": "address",
          "name": "",
          "type": "address"
        },
        {
          "internalType": "uint256",
          "name": "",
          "type": "uint256"
        }
      ],
      "name": "userCertificates",
      "outputs": [
        {
          "internalType": "uint256",
          "name": "",
          "type": "uint256"
        }
      ],
      "stateMutability": "view",
      "type": "function",
      "constant": true
    },
    {
      "inputs": [
        {
          "internalType": "address",
          "name": "_studentAddress",
          "type": "address"
        },
        {
          "internalType": "string",
          "name": "_studentName",
          "type": "string"
        },
        {
          "internalType": "string",
          "name": "_studentId",
          "type": "string"
        },
        {
          "internalType": "string",
          "name": "_university",
          "type": "string"
        },
        {
          "internalType": "uint256",
          "name": "_issueDate",
          "type": "uint256"
        },
        {
          "internalType": "string",
          "name": "_ipfsHash",
          "type": "string"
        }
      ],
      "name": "issueCertificate",
      "outputs": [],
      "stateMutability": "nonpayable",
      "type": "function"
    },
    {
      "inputs": [
        {
          "internalType": "string",
          "name": "_ipfsHash",
          "type": "string"
        }
      ],
      "name": "isCertificateValid",
      "outputs": [
        {
          "internalType": "bool",
          "name": "isValid",
          "type": "bool"
        },
        {
          "internalType": "uint256",
          "name": "id",
          "type": "uint256"
        },
        {
          "internalType": "string",
          "name": "studentName",
          "type": "string"
        },
        {
          "internalType": "string",
          "name": "studentId",
          "type": "string"
        },
        {
          "internalType": "string",
          "name": "university",
          "type": "string"
        },
        {
          "internalType": "uint256",
          "name": "issueDate",
          "type": "uint256"
        },
        {
          "internalType": "address",
          "name": "issuedBy",
          "type": "address"
        },
        {
          "internalType": "string",
          "name": "ipfsHash",
          "type": "string"
        }
      ],
      "stateMutability": "view",
      "type": "function",
      "constant": true
    },
    {
      "inputs": [
        {
          "internalType": "uint256",
          "name": "_certificateId",
          "type": "uint256"
        }
      ],
      "name": "verifyCertificate",
      "outputs": [],
      "stateMutability": "nonpayable",
      "type": "function"
    },
    {
      "inputs": [
        {
          "internalType": "uint256",
          "name": "_certificateId",
          "type": "uint256"
        }
      ],
      "name": "getCertificate",
      "outputs": [
        {
          "internalType": "uint256",
          "name": "id",
          "type": "uint256"
        },
        {
          "internalType": "string",
          "name": "studentName",
          "type": "string"
        },
        {
          "internalType": "string",
          "name": "studentId",
          "type": "string"
        },
        {
          "internalType": "string",
          "name": "university",
          "type": "string"
        },
        {
          "internalType": "uint256",
          "name": "issueDate",
          "type": "uint256"
        },
        {
          "internalType": "bool",
          "name": "isVerified",
          "type": "bool"
        },
        {
          "internalType": "address",
          "name": "issuedBy",
          "type": "address"
        },
        {
          "internalType": "string",
          "name": "ipfsHash",
          "type": "string"
        }
      ],
      "stateMutability": "view",
      "type": "function",
      "constant": true
    },
    {
      "inputs": [
        {
          "internalType": "address",
          "name": "_student",
          "type": "address"
        }
      ],
      "name": "getUserCertificates",
      "outputs": [
        {
          "internalType": "uint256[]",
          "name": "",
          "type": "uint256[]"
        }
      ],
      "stateMutability": "view",
      "type": "function",
      "constant": true
    },
    {
      "inputs": [
        {
          "internalType": "address",
          "name": "_newAdmin",
          "type": "address"
        }
      ],
      "name": "transferAdmin",
      "outputs": [],
      "stateMutability": "nonpayable",
      "type": "function"
    }
  ],
  "bytecode": "0x608060405234801561001057600080fd5b5033600460006101000a81548173ffffffffffffffffffffffffffffffffffffffff021916908373ffffffffffffffffffffffffffffffffffffffff1602179055506000600381905550612161806100696000396000f3fe608060405234801561001057600080fd5b506004361061009e5760003560e01c806351640fee1161006657806351640fee14610186578063663b3e22146101bd57806375829def146101f5578063d081ad1014610211578063f851a4401461022d5761009e565b80630175f889146100a35780630385bd18146100d35780631692a94214610103578063195098d01461011f5780632b6ff64614610156575b600080fd5b6100bd60048036038101906100b8919061176c565b61024b565b6040516100ca9190611bc9565b60405180910390f35b6100ed60048036038101906100e8919061165a565b61027c565b6040516100fa9190611a32565b60405180910390f35b61011d600480360381019061011891906117e9565b610313565b005b610139600480360381019061013491906117a8565b6104ad565b60405161014d989796959493929190611a6f565b60405180910390f35b610170600480360381019061016b91906117a8565b6108f1565b60405161017d9190611bc9565b60405180910390f35b6101a0600480360381019061019b91906117e9565b61091f565b6040516101b4989796959493929190611cbd565b60405180910390f35b6101d760048036038101906101d291906117e9565b610cff565b6040516101ec99989796959493929190611be4565b60405180910390f35b61020f600480360381019061020a919061165a565b610fba565b005b61022b60048036038101906102269190611683565b6110fe565b005b6102356114ff565b6040516102429190611a17565b60405180910390f35b6001602052816000526040600020818154811061026757600080fd5b90600052602060002001600091509150505481565b6060600160008373ffffffffffffffffffffffffffffffffffffffff1673ffffffffffffffffffffffffffffffffffffffff16815260200190815260200160002080548060200260200160405190810160405280929190818152602001828054801561030757602002820191906000526020600020905b8154815260200190600101908083116102f3575b50505050509050919050565b600460009054906101000a900473ffffffffffffffffffffffffffffffffffffffff1673ffffffffffffffffffffffffffffffffffffffff163373ffffffffffffffffffffffffffffffffffffffff16146103a3576040517f08c379a000000000000000000000000000000000000000000000000000000000815260040161039a90611ba9565b60405180910390fd5b60008060008381526020019081526020016000209050600081600001541415610401576040517f08c379a00000000000000000000000000000000000000000000000000000000081526004016103f890611b89565b60405180910390fd5b8060060160009054906101000a900460ff1615610453576040517f08c379a000000000000000000000000000000000000000000000000000000000815260040161044a90611b49565b60405180910390fd5b60018160060160006101000a81548160ff021916908315150217905550817f739766c917befd2312040cd8bdbcc45e456f5699d6e4466fb15dad5089660be060016040516104a19190611a54565b60405180910390a25050565b60008060608060606000806060600060028a6040516104cc9190611a00565b908152602001604051809103902054905060008114806105015750600080600083815260200190815260200160002060000154145b15610568576000806000806040518060200160405280600081525091906040518060200160405280600081525091906040518060200160405280600081525091906040518060200160405280600081525098509850985098509850985098509850506108e6565b600080600083815260200190815260200160002060405180610120016040529081600082015481526020016001820160009054906101000a900473ffffffffffffffffffffffffffffffffffffffff1673ffffffffffffffffffffffffffffffffffffffff1673ffffffffffffffffffffffffffffffffffffffff1681526020016002820180546105f890611e97565b80601f016020809104026020016040519081016040528092919081815260200182805461062490611e97565b80156106715780601f1061064657610100808354040283529160200191610671565b820191906000526020600020905b81548152906001019060200180831161065457829003601f168201915b5050505050815260200160038201805461068a90611e97565b80601f01602080910402602001604051908101604052809291908181526020018280546106b690611e97565b80156107035780601f106106d857610100808354040283529160200191610703565b820191906000526020600020905b8154815290600101906020018083116106e657829003601f168201915b5050505050815260200160048201805461071c90611e97565b80601f016020809104026020016040519081016040528092919081815260200182805461074890611e97565b80156107955780601f1061076a57610100808354040283529160200191610795565b820191906000526020600020905b81548152906001019060200180831161077857829003601f168201915b50505050508152602001600582015481526020016006820160009054906101000a900460ff161515151581526020016006820160019054906101000a900473ffffffffffffffffffffffffffffffffffffffff1673ffffffffffffffffffffffffffffffffffffffff1673ffffffffffffffffffffffffffffffffffffffff16815260200160078201805461082990611e97565b80601f016020809104026020016040519081016040528092919081815260200182805461085590611e97565b80156108a25780601f10610877576101008083540402835291602001916108a2565b820191906000526020600020905b81548152906001019060200180831161088557829003601f168201915b5050505050815250509050600181600001518260400151836060015184608001518560a001518660e001518761010001519950995099509950995099509950995050505b919395975091939597565b6002818051602081018201805184825260208301602085012081835280955050505050506000915090505481565b600060608060606000806000606060008060008b815260200190815260200160002060405180610120016040529081600082015481526020016001820160009054906101000a900473ffffffffffffffffffffffffffffffffffffffff1673ffffffffffffffffffffffffffffffffffffffff1673ffffffffffffffffffffffffffffffffffffffff1681526020016002820180546109bd90611e97565b80601f01602080910402602001604051908101604052809291908181526020018280546109e990611e97565b8015610a365780601f10610a0b57610100808354040283529160200191610a36565b820191906000526020600020905b815481529060010190602001808311610a1957829003601f168201915b50505050508152602001600382018054610a4f90611e97565b80601f0160208091040260200160405190810160405280929190818152602001828054610a7b90611e97565b8015610ac85780601f10610a9d57610100808354040283529160200191610ac8565b820191906000526020600020905b815481529060010190602001808311610aab57829003601f168201915b50505050508152602001600482018054610ae190611e97565b80601f0160208091040260200160405190810160405280929190818152602001828054610b0d90611e97565b8015610b5a5780601f10610b2f57610100808354040283529160200191610b5a565b820191906000526020600020905b815481529060010190602001808311610b3d57829003601f168201915b50505050508152602001600582015481526020016006820160009054906101000a900460ff161515151581526020016006820160019054906101000a900473ffffffffffffffffffffffffffffffffffffffff1673ffffffffffffffffffffffffffffffffffffffff1673ffffffffffffffffffffffffffffffffffffffff168152602001600782018054610bee90611e97565b80601f0160208091040260200160405190810160405280929190818152602001828054610c1a90611e97565b8015610c675780601f10610c3c57610100808354040283529160200191610c67565b820191906000526020600020905b815481529060010190602001808311610c4a57829003601f168201915b5050505050815250509050600081600001511415610cba576040517f08c379a0000000000000000000000000000000000000000000000000000000008152600401610cb190611b89565b60405180910390fd5b80600001518160400151826060015183608001518460a001518560c001518660e001518761010001519850985098509850985098509850985050919395975091939597565b60006020528060005260406000206000915090508060000154908060010160009054906101000a900473ffffffffffffffffffffffffffffffffffffffff1690806002018054610d4e90611e97565b80601f0160208091040260200160405190810160405280929190818152602001828054610d7a90611e97565b8015610dc75780601f10610d9c57610100808354040283529160200191610dc7565b820191906000526020600020905b815481529060010190602001808311610daa57829003601f168201915b505050505090806003018054610ddc90611e97565b80601f0160208091040260200160405190810160405280929190818152602001828054610e0890611e97565b8015610e555780601f10610e2a57610100808354040283529160200191610e55565b820191906000526020600020905b815481529060010190602001808311610e3857829003601f168201915b505050505090806004018054610e6a90611e97565b80601f0160208091040260200160405190810160405280929190818152602001828054610e9690611e97565b8015610ee35780601f10610eb857610100808354040283529160200191610ee3565b820191906000526020600020905b815481529060010190602001808311610ec657829003601f168201915b5050505050908060050154908060060160009054906101000a900460ff16908060060160019054906101000a900473ffffffffffffffffffffffffffffffffffffffff1690806007018054610f3790611e97565b80601f0160208091040260200160405190810160405280929190818152602001828054610f6390611e97565b8015610fb05780601f10610f8557610100808354040283529160200191610fb0565b820191906000526020600020905b815481529060010190602001808311610f9357829003601f168201915b5050505050905089565b600460009054906101000a900473ffffffffffffffffffffffffffffffffffffffff1673ffffffffffffffffffffffffffffffffffffffff163373ffffffffffffffffffffffffffffffffffffffff161461104a576040517f08c379a000000000000000000000000000000000000000000000000000000000815260040161104190611ba9565b60405180910390fd5b600073ffffffffffffffffffffffffffffffffffffffff168173ffffffffffffffffffffffffffffffffffffffff1614156110ba576040517f08c379a00000000000000000000000000000000000000000000000000000000081526004016110b190611b09565b60405180910390fd5b80600460006101000a81548173ffffffffffffffffffffffffffffffffffffffff021916908373ffffffffffffffffffffffffffffffffffffffff16021790555050565b600460009054906101000a900473ffffffffffffffffffffffffffffffffffffffff1673ffffffffffffffffffffffffffffffffffffffff163373ffffffffffffffffffffffffffffffffffffffff161461118e576040517f08c379a000000000000000000000000000000000000000000000000000000000815260040161118590611ba9565b60405180910390fd5b600073ffffffffffffffffffffffffffffffffffffffff168673ffffffffffffffffffffffffffffffffffffffff1614156111fe576040517f08c379a00000000000000000000000000000000000000000000000000000000081526004016111f590611b29565b60405180910390fd5b6000815111611242576040517f08c379a000000000000000000000000000000000000000000000000000000000815260040161123990611b69565b60405180910390fd5b6003600081548092919061125590611efa565b9190505550600060035490506040518061012001604052808281526020018873ffffffffffffffffffffffffffffffffffffffff1681526020018781526020018681526020018581526020018481526020016000151581526020013373ffffffffffffffffffffffffffffffffffffffff168152602001838152506000808381526020019081526020016000206000820151816000015560208201518160010160006101000a81548173ffffffffffffffffffffffffffffffffffffffff021916908373ffffffffffffffffffffffffffffffffffffffff160217905550604082015181600201908051906020019061134f929190611525565b50606082015181600301908051906020019061136c929190611525565b506080820151816004019080519060200190611389929190611525565b5060a0820151816005015560c08201518160060160006101000a81548160ff02191690831515021790555060e08201518160060160016101000a81548173ffffffffffffffffffffffffffffffffffffffff021916908373ffffffffffffffffffffffffffffffffffffffff160217905550610100820151816007019080519060200190611418929190611525565b509050508060028360405161142d9190611a00565b908152602001604051809103902081905550600160008873ffffffffffffffffffffffffffffffffffffffff1673ffffffffffffffffffffffffffffffffffffffff1681526020019081526020016000208190806001815401808255809150506001900390600052602060002001600090919091909150558673ffffffffffffffffffffffffffffffffffffffff16817f70e9dd7b2d7680ff10a6b1f6b97fe2e9888eb3098a9e2ee66104994c8c751adc85856040516114ee929190611c8d565b60405180910390a350505050505050565b600460009054906101000a900473ffffffffffffffffffffffffffffffffffffffff1681565b82805461153190611e97565b90600052602060002090601f016020900481019282611553576000855561159a565b82601f1061156c57805160ff191683800117855561159a565b8280016001018555821561159a579182015b8281111561159957825182559160200191906001019061157e565b5b5090506115a791906115ab565b5090565b5b808211156115c45760008160009055506001016115ac565b5090565b60006115db6115d684611d7c565b611d57565b9050828152602081018484840111156115f357600080fd5b6115fe848285611e55565b509392505050565b600081359050611615816120fd565b92915050565b600082601f83011261162c57600080fd5b813561163c8482602086016115c8565b91505092915050565b60008135905061165481612114565b92915050565b60006020828403121561166c57600080fd5b600061167a84828501611606565b91505092915050565b60008060008060008060c0878903121561169c57600080fd5b60006116aa89828a01611606565b965050602087013567ffffffffffffffff8111156116c757600080fd5b6116d389828a0161161b565b955050604087013567ffffffffffffffff8111156116f057600080fd5b6116fc89828a0161161b565b945050606087013567ffffffffffffffff81111561171957600080fd5b61172589828a0161161b565b935050608061173689828a01611645565b92505060a087013567ffffffffffffffff81111561175357600080fd5b61175f89828a0161161b565b9150509295509295509295565b6000806040838503121561177f57600080fd5b600061178d85828601611606565b925050602061179e85828601611645565b9150509250929050565b6000602082840312156117ba57600080fd5b600082013567ffffffffffffffff8111156117d457600080fd5b6117e08482850161161b565b91505092915050565b6000602082840312156117fb57600080fd5b600061180984828501611645565b91505092915050565b600061181e83836119e2565b60208301905092915050565b61183381611e0d565b82525050565b600061184482611dbd565b61184e8185611de0565b935061185983611dad565b8060005b8381101561188a5781516118718882611812565b975061187c83611dd3565b92505060018101905061185d565b5085935050505092915050565b6118a081611e1f565b82525050565b60006118b182611dc8565b6118bb8185611df1565b93506118cb818560208601611e64565b6118d481611fd0565b840191505092915050565b60006118ea82611dc8565b6118f48185611e02565b9350611904818560208601611e64565b80840191505092915050565b600061191d600f83611df1565b915061192882611fe1565b602082019050919050565b6000611940601783611df1565b915061194b8261200a565b602082019050919050565b6000611963601c83611df1565b915061196e82612033565b602082019050919050565b6000611986601983611df1565b91506119918261205c565b602082019050919050565b60006119a9601a83611df1565b91506119b482612085565b602082019050919050565b60006119cc602183611df1565b91506119d7826120ae565b604082019050919050565b6119eb81611e4b565b82525050565b6119fa81611e4b565b82525050565b6000611a0c82846118df565b915081905092915050565b6000602082019050611a2c600083018461182a565b92915050565b60006020820190508181036000830152611a4c8184611839565b905092915050565b6000602082019050611a696000830184611897565b92915050565b600061010082019050611a85600083018b611897565b611a92602083018a6119f1565b8181036040830152611aa481896118a6565b90508181036060830152611ab881886118a6565b90508181036080830152611acc81876118a6565b9050611adb60a08301866119f1565b611ae860c083018561182a565b81810360e0830152611afa81846118a6565b90509998505050505050505050565b60006020820190508181036000830152611b2281611910565b9050919050565b60006020820190508181036000830152611b4281611933565b9050919050565b60006020820190508181036000830152611b6281611956565b9050919050565b60006020820190508181036000830152611b8281611979565b9050919050565b60006020820190508181036000830152611ba28161199c565b9050919050565b60006020820190508181036000830152611bc2816119bf565b9050919050565b6000602082019050611bde60008301846119f1565b92915050565b600061012082019050611bfa600083018c6119f1565b611c07602083018b61182a565b8181036040830152611c19818a6118a6565b90508181036060830152611c2d81896118a6565b90508181036080830152611c4181886118a6565b9050611c5060a08301876119f1565b611c5d60c0830186611897565b611c6a60e083018561182a565b818103610100830152611c7d81846118a6565b90509a9950505050505050505050565b6000604082019050611ca260008301856119f1565b8181036020830152611cb481846118a6565b90509392505050565b600061010082019050611cd3600083018b6119f1565b8181036020830152611ce5818a6118a6565b90508181036040830152611cf981896118a6565b90508181036060830152611d0d81886118a6565b9050611d1c60808301876119f1565b611d2960a0830186611897565b611d3660c083018561182a565b81810360e0830152611d4881846118a6565b90509998505050505050505050565b6000611d61611d72565b9050611d6d8282611ec9565b919050565b6000604051905090565b600067ffffffffffffffff821115611d9757611d96611fa1565b5b611da082611fd0565b9050602081019050919050565b6000819050602082019050919050565b600081519050919050565b600081519050919050565b6000602082019050919050565b600082825260208201905092915050565b600082825260208201905092915050565b600081905092915050565b6000611e1882611e2b565b9050919050565b60008115159050919050565b600073ffffffffffffffffffffffffffffffffffffffff82169050919050565b6000819050919050565b82818337600083830152505050565b60005b83811015611e82578082015181840152602081019050611e67565b83811115611e91576000848401525b50505050565b60006002820490506001821680611eaf57607f821691505b60208210811415611ec357611ec2611f72565b5b50919050565b611ed282611fd0565b810181811067ffffffffffffffff82111715611ef157611ef0611fa1565b5b80604052505050565b6000611f0582611e4b565b91507fffffffffffffffffffffffffffffffffffffffffffffffffffffffffffffffff821415611f3857611f37611f43565b5b600182019050919050565b7f4e487b7100000000000000000000000000000000000000000000000000000000600052601160045260246000fd5b7f4e487b7100000000000000000000000000000000000000000000000000000000600052602260045260246000fd5b7f4e487b7100000000000000000000000000000000000000000000000000000000600052604160045260246000fd5b6000601f19601f8301169050919050565b7f496e76616c696420616464726573730000000000000000000000000000000000600082015250565b7f496e76616c69642073747564656e742061646472657373000000000000000000600082015250565b7f436572746966696361746520616c726561647920766572696669656400000000600082015250565b7f4950465320686173682063616e6e6f7420626520656d70747900000000000000600082015250565b7f436572746966696361746520646f6573206e6f74206578697374000000000000600082015250565b7f4f6e6c792061646d696e2063616e2063616c6c20746869732066756e6374696f60008201527f6e00000000000000000000000000000000000000000000000000000000000000602082015250565b61210681611e0d565b811461211157600080fd5b50565b61211d81611e4b565b811461212857600080fd5b5056fea2646970667358221220e06e0caea4982beb0de530591d57b6d46b1275533d548b915dd5bb02ea0da74064736f6c63430008020033",
  "immutableReferences": {},
  "source": "// SPDX-License-Identifier: UNLICENSED\r\npragma solidity ^0.8.0;\r\n\r\ncontract cert {\r\n    // Cu trc d liu cho chng ch\r\n    struct Certificate {\r\n        uint256 id;\r\n        address studentAddress;\r\n        string studentName;\r\n        string studentId;\r\n        string university;\r\n        uint256 issueDate;\r\n        bool isVerified;\r\n        address issuedBy;\r\n        string ipfsHash;\r\n    }\r\n\r\n    // Mapping  lu chng ch theo ID\r\n    mapping(uint256 => Certificate) public certificates;\r\n\r\n    // Mapping  lu danh sch ID chng ch ca tng sinh vin\r\n    mapping(address => uint256[]) public userCertificates;\r\n\r\n    // Mapping  nh x ipfsHash n certificateId\r\n    mapping(string => uint256) public ipfsToId;\r\n\r\n    // Bin m ID chng ch\r\n    uint256 private certificateIdCounter;\r\n\r\n    // S kin pht hnh chng ch\r\n    event CertificateIssued(uint256 indexed certificateId, address indexed studentAddress, uint256 issueDate, string ipfsHash);\r\n\r\n    // S kin xc minh chng ch\r\n    event CertificateVerified(uint256 indexed certificateId, bool status);\r\n\r\n    // a ch qun tr (trng hc)\r\n    address public admin;\r\n\r\n    // Constructor  thit lp admin\r\n    constructor() {\r\n        admin = msg.sender;\r\n        certificateIdCounter = 0; // Khi to counter\r\n    }\r\n\r\n    // Ch admin hoc Issuer c php gi\r\n    modifier onlyAdmin() {\r\n        require(msg.sender == admin, \"Only admin can call this function\");\r\n        _;\r\n    }\r\n\r\n    // Pht hnh chng ch\r\n    function issueCertificate(\r\n        address _studentAddress,\r\n        string memory _studentName,\r\n        string memory _studentId,\r\n        string memory _university,\r\n        uint256 _issueDate,\r\n        string memory _ipfsHash\r\n    ) public onlyAdmin {\r\n        require(_studentAddress != address(0), \"Invalid student address\");\r\n        require(bytes(_ipfsHash).length > 0, \"IPFS hash cannot be empty\");\r\n        certificateIdCounter++;\r\n        uint256 newCertificateId = certificateIdCounter;\r\n\r\n        certificates[newCertificateId] = Certificate(\r\n            newCertificateId,\r\n            _studentAddress,\r\n            _studentName,\r\n            _studentId,\r\n            _university,\r\n            _issueDate,\r\n            false, // isVerified mc nh l false\r\n            msg.sender,\r\n            _ipfsHash\r\n        );\r\n\r\n        // Gn ipfsHash n certificateId\r\n        ipfsToId[_ipfsHash] = newCertificateId;\r\n\r\n        // Thm certificateId vo danh sch ca sinh vin\r\n        userCertificates[_studentAddress].push(newCertificateId);\r\n\r\n        emit CertificateIssued(newCertificateId, _studentAddress, _issueDate, _ipfsHash);\r\n    }\r\n\r\n    // Kim tra tnh hp l ca chng ch v tr v thng tin\r\n    function isCertificateValid(string memory _ipfsHash) public view returns (\r\n        bool isValid,\r\n        uint256 id,\r\n        string memory studentName,\r\n        string memory studentId,\r\n        string memory university,\r\n        uint256 issueDate,\r\n        address issuedBy,\r\n        string memory ipfsHash\r\n    ) {\r\n        uint256 certificateId = ipfsToId[_ipfsHash];\r\n        if (certificateId == 0 || certificates[certificateId].id == 0) {\r\n            return (false, 0, \"\", \"\", \"\", 0, address(0), \"\");\r\n        }\r\n        Certificate memory certData = certificates[certificateId];\r\n        return (true, certData.id, certData.studentName, certData.studentId, certData.university, certData.issueDate, certData.issuedBy, certData.ipfsHash);\r\n    }\r\n\r\n    // Xc minh chng ch\r\n    function verifyCertificate(uint256 _certificateId) public onlyAdmin {\r\n        Certificate storage certData = certificates[_certificateId];\r\n        require(certData.id != 0, \"Certificate does not exist\");\r\n        require(!certData.isVerified, \"Certificate already verified\");\r\n        certData.isVerified = true;\r\n        emit CertificateVerified(_certificateId, true);\r\n    }\r\n\r\n    // Ly thng tin chng ch\r\n    function getCertificate(uint256 _certificateId) public view returns (\r\n        uint256 id,\r\n        string memory studentName,\r\n        string memory studentId,\r\n        string memory university,\r\n        uint256 issueDate,\r\n        bool isVerified,\r\n        address issuedBy,\r\n        string memory ipfsHash\r\n    ) {\r\n        Certificate memory certData = certificates[_certificateId];\r\n        require(certData.id != 0, \"Certificate does not exist\");\r\n        return (\r\n            certData.id,\r\n            certData.studentName,\r\n            certData.studentId,\r\n            certData.university,\r\n            certData.issueDate,\r\n            certData.isVerified,\r\n            certData.issuedBy,\r\n            certData.ipfsHash\r\n\r\n        );\r\n    }\r\n\r\n    // Ly danh sch ID chng ch ca sinh vin\r\n    function getUserCertificates(address _student) public view returns (uint256[] memory) {\r\n        return userCertificates[_student];\r\n    }\r\n\r\n    // Chuyn quyn admin (nu cn)\r\n    function transferAdmin(address _newAdmin) public onlyAdmin {\r\n        require(_newAdmin != address(0), \"Invalid address\");\r\n        admin = _newAdmin;\r\n    }\r\n}",
  "sourcePath": "D:\\Web\\blockchain\\app-vbcc\\contracts\\cert.sol",
  "compiler": {
    "name": "solc",
    "version": "0.8.2+commit.661d1103.Emscripten.clang"
  },
  "schemaVersion": "3.4.16",
  "updatedAt": "2025-08-07T06:28:50.649Z",
  "networkType": "ethereum",
  "devdoc": {
    "kind": "dev",
    "methods": {},
    "version": 1
  },
  "userdoc": {
    "kind": "user",
    "methods": {},
    "version": 1
  }
}