{
  "contractName": "cert",
  "abi": [
    {
      "inputs": [],
      "stateMutability": "nonpayable",
      "type": "constructor"
    },
    {
      "anonymous": false,
      "inputs": [
        {
          "indexed": true,
          "internalType": "uint256",
          "name": "certificateId",
          "type": "uint256"
        },
        {
          "indexed": true,
          "internalType": "address",
          "name": "studentAddress",
          "type": "address"
        },
        {
          "indexed": false,
          "internalType": "uint256",
          "name": "issueDate",
          "type": "uint256"
        },
        {
          "indexed": false,
          "internalType": "string",
          "name": "ipfsHash",
          "type": "string"
        }
      ],
      "name": "CertificateIssued",
      "type": "event"
    },
    {
      "anonymous": false,
      "inputs": [
        {
          "indexed": true,
          "internalType": "uint256",
          "name": "certificateId",
          "type": "uint256"
        },
        {
          "indexed": false,
          "internalType": "bool",
          "name": "status",
          "type": "bool"
        }
      ],
      "name": "CertificateVerified",
      "type": "event"
    },
    {
      "inputs": [],
      "name": "admin",
      "outputs": [
        {
          "internalType": "address",
          "name": "",
          "type": "address"
        }
      ],
      "stateMutability": "view",
      "type": "function",
      "constant": true
    },
    {
      "inputs": [
        {
          "internalType": "uint256",
          "name": "",
          "type": "uint256"
        }
      ],
      "name": "certificates",
      "outputs": [
        {
          "internalType": "uint256",
          "name": "id",
          "type": "uint256"
        },
        {
          "internalType": "address",
          "name": "studentAddress",
          "type": "address"
        },
        {
          "internalType": "string",
          "name": "studentName",
          "type": "string"
        },
        {
          "internalType": "string",
          "name": "studentId",
          "type": "string"
        },
        {
          "internalType": "string",
          "name": "university",
          "type": "string"
        },
        {
          "internalType": "uint256",
          "name": "issueDate",
          "type": "uint256"
        },
        {
          "internalType": "bool",
          "name": "isVerified",
          "type": "bool"
        },
        {
          "internalType": "address",
          "name": "issuedBy",
          "type": "address"
        },
        {
          "internalType": "string",
          "name": "ipfsHash",
          "type": "string"
        }
      ],
      "stateMutability": "view",
      "type": "function",
      "constant": true
    },
    {
      "inputs": [
        {
          "internalType": "string",
          "name": "",
          "type": "string"
        }
      ],
      "name": "ipfsToId",
      "outputs": [
        {
          "internalType": "uint256",
          "name": "",
          "type": "uint256"
        }
      ],
      "stateMutability": "view",
      "type": "function",
      "constant": true
    },
    {
      "inputs": [
        {
          "internalType": "address",
          "name": "",
          "type": "address"
        },
        {
          "internalType": "uint256",
          "name": "",
          "type": "uint256"
        }
      ],
      "name": "userCertificates",
      "outputs": [
        {
          "internalType": "uint256",
          "name": "",
          "type": "uint256"
        }
      ],
      "stateMutability": "view",
      "type": "function",
      "constant": true
    },
    {
      "inputs": [
        {
          "internalType": "address",
          "name": "_studentAddress",
          "type": "address"
        },
        {
          "internalType": "string",
          "name": "_studentName",
          "type": "string"
        },
        {
          "internalType": "string",
          "name": "_studentId",
          "type": "string"
        },
        {
          "internalType": "string",
          "name": "_university",
          "type": "string"
        },
        {
          "internalType": "uint256",
          "name": "_issueDate",
          "type": "uint256"
        },
        {
          "internalType": "string",
          "name": "_ipfsHash",
          "type": "string"
        }
      ],
      "name": "issueCertificate",
      "outputs": [],
      "stateMutability": "nonpayable",
      "type": "function"
    },
    {
      "inputs": [
        {
          "internalType": "string",
          "name": "_ipfsHash",
          "type": "string"
        }
      ],
      "name": "isCertificateValid",
      "outputs": [
        {
          "internalType": "bool",
          "name": "isValid",
          "type": "bool"
        },
        {
          "internalType": "uint256",
          "name": "id",
          "type": "uint256"
        },
        {
          "internalType": "string",
          "name": "studentName",
          "type": "string"
        },
        {
          "internalType": "string",
          "name": "studentId",
          "type": "string"
        },
        {
          "internalType": "string",
          "name": "university",
          "type": "string"
        },
        {
          "internalType": "uint256",
          "name": "issueDate",
          "type": "uint256"
        },
        {
          "internalType": "address",
          "name": "issuedBy",
          "type": "address"
        },
        {
          "internalType": "string",
          "name": "ipfsHash",
          "type": "string"
        }
      ],
      "stateMutability": "view",
      "type": "function",
      "constant": true
    },
    {
      "inputs": [
        {
          "internalType": "uint256",
          "name": "_certificateId",
          "type": "uint256"
        }
      ],
      "name": "verifyCertificate",
      "outputs": [],
      "stateMutability": "nonpayable",
      "type": "function"
    },
    {
      "inputs": [
        {
          "internalType": "uint256",
          "name": "_certificateId",
          "type": "uint256"
        }
      ],
      "name": "getCertificate",
      "outputs": [
        {
          "internalType": "uint256",
          "name": "id",
          "type": "uint256"
        },
        {
          "internalType": "string",
          "name": "studentName",
          "type": "string"
        },
        {
          "internalType": "string",
          "name": "studentId",
          "type": "string"
        },
        {
          "internalType": "string",
          "name": "university",
          "type": "string"
        },
        {
          "internalType": "uint256",
          "name": "issueDate",
          "type": "uint256"
        },
        {
          "internalType": "bool",
          "name": "isVerified",
          "type": "bool"
        },
        {
          "internalType": "address",
          "name": "issuedBy",
          "type": "address"
        },
        {
          "internalType": "string",
          "name": "ipfsHash",
          "type": "string"
        }
      ],
      "stateMutability": "view",
      "type": "function",
      "constant": true
    },
    {
      "inputs": [
        {
          "internalType": "address",
          "name": "_student",
          "type": "address"
        }
      ],
      "name": "getUserCertificates",
      "outputs": [
        {
          "internalType": "uint256[]",
          "name": "",
          "type": "uint256[]"
        }
      ],
      "stateMutability": "view",
      "type": "function",
      "constant": true
    },
    {
      "inputs": [],
      "name": "getAllCertificates",
      "outputs": [
        {
          "components": [
            {
              "internalType": "uint256",
              "name": "id",
              "type": "uint256"
            },
            {
              "internalType": "address",
              "name": "studentAddress",
              "type": "address"
            },
            {
              "internalType": "string",
              "name": "studentName",
              "type": "string"
            },
            {
              "internalType": "string",
              "name": "studentId",
              "type": "string"
            },
            {
              "internalType": "string",
              "name": "university",
              "type": "string"
            },
            {
              "internalType": "uint256",
              "name": "issueDate",
              "type": "uint256"
            },
            {
              "internalType": "bool",
              "name": "isVerified",
              "type": "bool"
            },
            {
              "internalType": "address",
              "name": "issuedBy",
              "type": "address"
            },
            {
              "internalType": "string",
              "name": "ipfsHash",
              "type": "string"
            }
          ],
          "internalType": "struct cert.Certificate[]",
          "name": "",
          "type": "tuple[]"
        }
      ],
      "stateMutability": "view",
      "type": "function",
      "constant": true
    },
    {
      "inputs": [
        {
          "internalType": "address",
          "name": "_newAdmin",
          "type": "address"
        }
      ],
      "name": "transferAdmin",
      "outputs": [],
      "stateMutability": "nonpayable",
      "type": "function"
    }
  ],
  "bytecode": "0x608060405234801561001057600080fd5b5033600460006101000a81548173ffffffffffffffffffffffffffffffffffffffff021916908373ffffffffffffffffffffffffffffffffffffffff160217905550600060038190555061294a806100696000396000f3fe608060405234801561001057600080fd5b50600436106100a95760003560e01c80632b6ff646116100715780632b6ff6461461017f57806351640fee146101af578063663b3e22146101e657806375829def1461021e578063d081ad101461023a578063f851a44014610256576100a9565b80630175f889146100ae5780630385bd18146100de57806313fcfe801461010e5780631692a9421461012c578063195098d014610148575b600080fd5b6100c860048036038101906100c39190611cfb565b610274565b6040516100d59190612334565b60405180910390f35b6100f860048036038101906100f39190611be9565b6102a5565b604051610105919061219d565b60405180910390f35b61011661033c565b604051610123919061217b565b60405180910390f35b61014660048036038101906101419190611d78565b610828565b005b610162600480360381019061015d9190611d37565b6109c2565b6040516101769897969594939291906121da565b60405180910390f35b61019960048036038101906101949190611d37565b610e06565b6040516101a69190612334565b60405180910390f35b6101c960048036038101906101c49190611d78565b610e34565b6040516101dd989796959493929190612428565b60405180910390f35b61020060048036038101906101fb9190611d78565b611214565b6040516102159998979695949392919061234f565b60405180910390f35b61023860048036038101906102339190611be9565b6114cf565b005b610254600480360381019061024f9190611c12565b611613565b005b61025e611a14565b60405161026b9190612160565b60405180910390f35b6001602052816000526040600020818154811061029057600080fd5b90600052602060002001600091509150505481565b6060600160008373ffffffffffffffffffffffffffffffffffffffff1673ffffffffffffffffffffffffffffffffffffffff16815260200190815260200160002080548060200260200160405190810160405280929190818152602001828054801561033057602002820191906000526020600020905b81548152602001906001019080831161031c575b50505050509050919050565b6060600460009054906101000a900473ffffffffffffffffffffffffffffffffffffffff1673ffffffffffffffffffffffffffffffffffffffff163373ffffffffffffffffffffffffffffffffffffffff16146103ce576040517f08c379a00000000000000000000000000000000000000000000000000000000081526004016103c590612314565b60405180910390fd5b600060035467ffffffffffffffff811115610412577f4e487b7100000000000000000000000000000000000000000000000000000000600052604160045260246000fd5b60405190808252806020026020018201604052801561044b57816020015b610438611a3a565b8152602001906001900390816104305790505b5090506000600190505b6003548111610820576000806000838152602001908152602001600020600001541461080d5760008082815260200190815260200160002060405180610120016040529081600082015481526020016001820160009054906101000a900473ffffffffffffffffffffffffffffffffffffffff1673ffffffffffffffffffffffffffffffffffffffff1673ffffffffffffffffffffffffffffffffffffffff16815260200160028201805461050990612680565b80601f016020809104026020016040519081016040528092919081815260200182805461053590612680565b80156105825780601f1061055757610100808354040283529160200191610582565b820191906000526020600020905b81548152906001019060200180831161056557829003601f168201915b5050505050815260200160038201805461059b90612680565b80601f01602080910402602001604051908101604052809291908181526020018280546105c790612680565b80156106145780601f106105e957610100808354040283529160200191610614565b820191906000526020600020905b8154815290600101906020018083116105f757829003601f168201915b5050505050815260200160048201805461062d90612680565b80601f016020809104026020016040519081016040528092919081815260200182805461065990612680565b80156106a65780601f1061067b576101008083540402835291602001916106a6565b820191906000526020600020905b81548152906001019060200180831161068957829003601f168201915b50505050508152602001600582015481526020016006820160009054906101000a900460ff161515151581526020016006820160019054906101000a900473ffffffffffffffffffffffffffffffffffffffff1673ffffffffffffffffffffffffffffffffffffffff1673ffffffffffffffffffffffffffffffffffffffff16815260200160078201805461073a90612680565b80601f016020809104026020016040519081016040528092919081815260200182805461076690612680565b80156107b35780601f10610788576101008083540402835291602001916107b3565b820191906000526020600020905b81548152906001019060200180831161079657829003601f168201915b505050505081525050826001836107ca91906125c2565b81518110610801577f4e487b7100000000000000000000000000000000000000000000000000000000600052603260045260246000fd5b60200260200101819052505b8080610818906126e3565b915050610455565b508091505090565b600460009054906101000a900473ffffffffffffffffffffffffffffffffffffffff1673ffffffffffffffffffffffffffffffffffffffff163373ffffffffffffffffffffffffffffffffffffffff16146108b8576040517f08c379a00000000000000000000000000000000000000000000000000000000081526004016108af90612314565b60405180910390fd5b60008060008381526020019081526020016000209050600081600001541415610916576040517f08c379a000000000000000000000000000000000000000000000000000000000815260040161090d906122f4565b60405180910390fd5b8060060160009054906101000a900460ff1615610968576040517f08c379a000000000000000000000000000000000000000000000000000000000815260040161095f906122b4565b60405180910390fd5b60018160060160006101000a81548160ff021916908315150217905550817f739766c917befd2312040cd8bdbcc45e456f5699d6e4466fb15dad5089660be060016040516109b691906121bf565b60405180910390a25050565b60008060608060606000806060600060028a6040516109e19190612149565b90815260200160405180910390205490506000811480610a165750600080600083815260200190815260200160002060000154145b15610a7d57600080600080604051806020016040528060008152509190604051806020016040528060008152509190604051806020016040528060008152509190604051806020016040528060008152509850985098509850985098509850985050610dfb565b600080600083815260200190815260200160002060405180610120016040529081600082015481526020016001820160009054906101000a900473ffffffffffffffffffffffffffffffffffffffff1673ffffffffffffffffffffffffffffffffffffffff1673ffffffffffffffffffffffffffffffffffffffff168152602001600282018054610b0d90612680565b80601f0160208091040260200160405190810160405280929190818152602001828054610b3990612680565b8015610b865780601f10610b5b57610100808354040283529160200191610b86565b820191906000526020600020905b815481529060010190602001808311610b6957829003601f168201915b50505050508152602001600382018054610b9f90612680565b80601f0160208091040260200160405190810160405280929190818152602001828054610bcb90612680565b8015610c185780601f10610bed57610100808354040283529160200191610c18565b820191906000526020600020905b815481529060010190602001808311610bfb57829003601f168201915b50505050508152602001600482018054610c3190612680565b80601f0160208091040260200160405190810160405280929190818152602001828054610c5d90612680565b8015610caa5780601f10610c7f57610100808354040283529160200191610caa565b820191906000526020600020905b815481529060010190602001808311610c8d57829003601f168201915b50505050508152602001600582015481526020016006820160009054906101000a900460ff161515151581526020016006820160019054906101000a900473ffffffffffffffffffffffffffffffffffffffff1673ffffffffffffffffffffffffffffffffffffffff1673ffffffffffffffffffffffffffffffffffffffff168152602001600782018054610d3e90612680565b80601f0160208091040260200160405190810160405280929190818152602001828054610d6a90612680565b8015610db75780601f10610d8c57610100808354040283529160200191610db7565b820191906000526020600020905b815481529060010190602001808311610d9a57829003601f168201915b5050505050815250509050600181600001518260400151836060015184608001518560a001518660e001518761010001519950995099509950995099509950995050505b919395975091939597565b6002818051602081018201805184825260208301602085012081835280955050505050506000915090505481565b600060608060606000806000606060008060008b815260200190815260200160002060405180610120016040529081600082015481526020016001820160009054906101000a900473ffffffffffffffffffffffffffffffffffffffff1673ffffffffffffffffffffffffffffffffffffffff1673ffffffffffffffffffffffffffffffffffffffff168152602001600282018054610ed290612680565b80601f0160208091040260200160405190810160405280929190818152602001828054610efe90612680565b8015610f4b5780601f10610f2057610100808354040283529160200191610f4b565b820191906000526020600020905b815481529060010190602001808311610f2e57829003601f168201915b50505050508152602001600382018054610f6490612680565b80601f0160208091040260200160405190810160405280929190818152602001828054610f9090612680565b8015610fdd5780601f10610fb257610100808354040283529160200191610fdd565b820191906000526020600020905b815481529060010190602001808311610fc057829003601f168201915b50505050508152602001600482018054610ff690612680565b80601f016020809104026020016040519081016040528092919081815260200182805461102290612680565b801561106f5780601f106110445761010080835404028352916020019161106f565b820191906000526020600020905b81548152906001019060200180831161105257829003601f168201915b50505050508152602001600582015481526020016006820160009054906101000a900460ff161515151581526020016006820160019054906101000a900473ffffffffffffffffffffffffffffffffffffffff1673ffffffffffffffffffffffffffffffffffffffff1673ffffffffffffffffffffffffffffffffffffffff16815260200160078201805461110390612680565b80601f016020809104026020016040519081016040528092919081815260200182805461112f90612680565b801561117c5780601f106111515761010080835404028352916020019161117c565b820191906000526020600020905b81548152906001019060200180831161115f57829003601f168201915b50505050508152505090506000816000015114156111cf576040517f08c379a00000000000000000000000000000000000000000000000000000000081526004016111c6906122f4565b60405180910390fd5b80600001518160400151826060015183608001518460a001518560c001518660e001518761010001519850985098509850985098509850985050919395975091939597565b60006020528060005260406000206000915090508060000154908060010160009054906101000a900473ffffffffffffffffffffffffffffffffffffffff169080600201805461126390612680565b80601f016020809104026020016040519081016040528092919081815260200182805461128f90612680565b80156112dc5780601f106112b1576101008083540402835291602001916112dc565b820191906000526020600020905b8154815290600101906020018083116112bf57829003601f168201915b5050505050908060030180546112f190612680565b80601f016020809104026020016040519081016040528092919081815260200182805461131d90612680565b801561136a5780601f1061133f5761010080835404028352916020019161136a565b820191906000526020600020905b81548152906001019060200180831161134d57829003601f168201915b50505050509080600401805461137f90612680565b80601f01602080910402602001604051908101604052809291908181526020018280546113ab90612680565b80156113f85780601f106113cd576101008083540402835291602001916113f8565b820191906000526020600020905b8154815290600101906020018083116113db57829003601f168201915b5050505050908060050154908060060160009054906101000a900460ff16908060060160019054906101000a900473ffffffffffffffffffffffffffffffffffffffff169080600701805461144c90612680565b80601f016020809104026020016040519081016040528092919081815260200182805461147890612680565b80156114c55780601f1061149a576101008083540402835291602001916114c5565b820191906000526020600020905b8154815290600101906020018083116114a857829003601f168201915b5050505050905089565b600460009054906101000a900473ffffffffffffffffffffffffffffffffffffffff1673ffffffffffffffffffffffffffffffffffffffff163373ffffffffffffffffffffffffffffffffffffffff161461155f576040517f08c379a000000000000000000000000000000000000000000000000000000000815260040161155690612314565b60405180910390fd5b600073ffffffffffffffffffffffffffffffffffffffff168173ffffffffffffffffffffffffffffffffffffffff1614156115cf576040517f08c379a00000000000000000000000000000000000000000000000000000000081526004016115c690612274565b60405180910390fd5b80600460006101000a81548173ffffffffffffffffffffffffffffffffffffffff021916908373ffffffffffffffffffffffffffffffffffffffff16021790555050565b600460009054906101000a900473ffffffffffffffffffffffffffffffffffffffff1673ffffffffffffffffffffffffffffffffffffffff163373ffffffffffffffffffffffffffffffffffffffff16146116a3576040517f08c379a000000000000000000000000000000000000000000000000000000000815260040161169a90612314565b60405180910390fd5b600073ffffffffffffffffffffffffffffffffffffffff168673ffffffffffffffffffffffffffffffffffffffff161415611713576040517f08c379a000000000000000000000000000000000000000000000000000000000815260040161170a90612294565b60405180910390fd5b6000815111611757576040517f08c379a000000000000000000000000000000000000000000000000000000000815260040161174e906122d4565b60405180910390fd5b6003600081548092919061176a906126e3565b9190505550600060035490506040518061012001604052808281526020018873ffffffffffffffffffffffffffffffffffffffff1681526020018781526020018681526020018581526020018481526020016000151581526020013373ffffffffffffffffffffffffffffffffffffffff168152602001838152506000808381526020019081526020016000206000820151816000015560208201518160010160006101000a81548173ffffffffffffffffffffffffffffffffffffffff021916908373ffffffffffffffffffffffffffffffffffffffff1602179055506040820151816002019080519060200190611864929190611ab4565b506060820151816003019080519060200190611881929190611ab4565b50608082015181600401908051906020019061189e929190611ab4565b5060a0820151816005015560c08201518160060160006101000a81548160ff02191690831515021790555060e08201518160060160016101000a81548173ffffffffffffffffffffffffffffffffffffffff021916908373ffffffffffffffffffffffffffffffffffffffff16021790555061010082015181600701908051906020019061192d929190611ab4565b50905050806002836040516119429190612149565b908152602001604051809103902081905550600160008873ffffffffffffffffffffffffffffffffffffffff1673ffffffffffffffffffffffffffffffffffffffff1681526020019081526020016000208190806001815401808255809150506001900390600052602060002001600090919091909150558673ffffffffffffffffffffffffffffffffffffffff16817f70e9dd7b2d7680ff10a6b1f6b97fe2e9888eb3098a9e2ee66104994c8c751adc8585604051611a039291906123f8565b60405180910390a350505050505050565b600460009054906101000a900473ffffffffffffffffffffffffffffffffffffffff1681565b60405180610120016040528060008152602001600073ffffffffffffffffffffffffffffffffffffffff16815260200160608152602001606081526020016060815260200160008152602001600015158152602001600073ffffffffffffffffffffffffffffffffffffffff168152602001606081525090565b828054611ac090612680565b90600052602060002090601f016020900481019282611ae25760008555611b29565b82601f10611afb57805160ff1916838001178555611b29565b82800160010185558215611b29579182015b82811115611b28578251825591602001919060010190611b0d565b5b509050611b369190611b3a565b5090565b5b80821115611b53576000816000905550600101611b3b565b5090565b6000611b6a611b65846124e7565b6124c2565b905082815260208101848484011115611b8257600080fd5b611b8d84828561263e565b509392505050565b600081359050611ba4816128e6565b92915050565b600082601f830112611bbb57600080fd5b8135611bcb848260208601611b57565b91505092915050565b600081359050611be3816128fd565b92915050565b600060208284031215611bfb57600080fd5b6000611c0984828501611b95565b91505092915050565b60008060008060008060c08789031215611c2b57600080fd5b6000611c3989828a01611b95565b965050602087013567ffffffffffffffff811115611c5657600080fd5b611c6289828a01611baa565b955050604087013567ffffffffffffffff811115611c7f57600080fd5b611c8b89828a01611baa565b945050606087013567ffffffffffffffff811115611ca857600080fd5b611cb489828a01611baa565b9350506080611cc589828a01611bd4565b92505060a087013567ffffffffffffffff811115611ce257600080fd5b611cee89828a01611baa565b9150509295509295509295565b60008060408385031215611d0e57600080fd5b6000611d1c85828601611b95565b9250506020611d2d85828601611bd4565b9150509250929050565b600060208284031215611d4957600080fd5b600082013567ffffffffffffffff811115611d6357600080fd5b611d6f84828501611baa565b91505092915050565b600060208284031215611d8a57600080fd5b6000611d9884828501611bd4565b91505092915050565b6000611dad8383612051565b905092915050565b6000611dc1838361212b565b60208301905092915050565b611dd6816125f6565b82525050565b611de5816125f6565b82525050565b6000611df682612538565b611e008185612573565b935083602082028501611e1285612518565b8060005b85811015611e4e5784840389528151611e2f8582611da1565b9450611e3a83612559565b925060208a01995050600181019050611e16565b50829750879550505050505092915050565b6000611e6b82612543565b611e758185612584565b9350611e8083612528565b8060005b83811015611eb1578151611e988882611db5565b9750611ea383612566565b925050600181019050611e84565b5085935050505092915050565b611ec781612608565b82525050565b611ed681612608565b82525050565b6000611ee78261254e565b611ef18185612595565b9350611f0181856020860161264d565b611f0a816127b9565b840191505092915050565b6000611f208261254e565b611f2a81856125a6565b9350611f3a81856020860161264d565b611f43816127b9565b840191505092915050565b6000611f598261254e565b611f6381856125b7565b9350611f7381856020860161264d565b80840191505092915050565b6000611f8c600f836125a6565b9150611f97826127ca565b602082019050919050565b6000611faf6017836125a6565b9150611fba826127f3565b602082019050919050565b6000611fd2601c836125a6565b9150611fdd8261281c565b602082019050919050565b6000611ff56019836125a6565b915061200082612845565b602082019050919050565b6000612018601a836125a6565b91506120238261286e565b602082019050919050565b600061203b6021836125a6565b915061204682612897565b604082019050919050565b60006101208301600083015161206a600086018261212b565b50602083015161207d6020860182611dcd565b50604083015184820360408601526120958282611edc565b915050606083015184820360608601526120af8282611edc565b915050608083015184820360808601526120c98282611edc565b91505060a08301516120de60a086018261212b565b5060c08301516120f160c0860182611ebe565b5060e083015161210460e0860182611dcd565b5061010083015184820361010086015261211e8282611edc565b9150508091505092915050565b61213481612634565b82525050565b61214381612634565b82525050565b60006121558284611f4e565b915081905092915050565b60006020820190506121756000830184611ddc565b92915050565b600060208201905081810360008301526121958184611deb565b905092915050565b600060208201905081810360008301526121b78184611e60565b905092915050565b60006020820190506121d46000830184611ecd565b92915050565b6000610100820190506121f0600083018b611ecd565b6121fd602083018a61213a565b818103604083015261220f8189611f15565b905081810360608301526122238188611f15565b905081810360808301526122378187611f15565b905061224660a083018661213a565b61225360c0830185611ddc565b81810360e08301526122658184611f15565b90509998505050505050505050565b6000602082019050818103600083015261228d81611f7f565b9050919050565b600060208201905081810360008301526122ad81611fa2565b9050919050565b600060208201905081810360008301526122cd81611fc5565b9050919050565b600060208201905081810360008301526122ed81611fe8565b9050919050565b6000602082019050818103600083015261230d8161200b565b9050919050565b6000602082019050818103600083015261232d8161202e565b9050919050565b6000602082019050612349600083018461213a565b92915050565b600061012082019050612365600083018c61213a565b612372602083018b611ddc565b8181036040830152612384818a611f15565b905081810360608301526123988189611f15565b905081810360808301526123ac8188611f15565b90506123bb60a083018761213a565b6123c860c0830186611ecd565b6123d560e0830185611ddc565b8181036101008301526123e88184611f15565b90509a9950505050505050505050565b600060408201905061240d600083018561213a565b818103602083015261241f8184611f15565b90509392505050565b60006101008201905061243e600083018b61213a565b8181036020830152612450818a611f15565b905081810360408301526124648189611f15565b905081810360608301526124788188611f15565b9050612487608083018761213a565b61249460a0830186611ecd565b6124a160c0830185611ddc565b81810360e08301526124b38184611f15565b90509998505050505050505050565b60006124cc6124dd565b90506124d882826126b2565b919050565b6000604051905090565b600067ffffffffffffffff8211156125025761250161278a565b5b61250b826127b9565b9050602081019050919050565b6000819050602082019050919050565b6000819050602082019050919050565b600081519050919050565b600081519050919050565b600081519050919050565b6000602082019050919050565b6000602082019050919050565b600082825260208201905092915050565b600082825260208201905092915050565b600082825260208201905092915050565b600082825260208201905092915050565b600081905092915050565b60006125cd82612634565b91506125d883612634565b9250828210156125eb576125ea61272c565b5b828203905092915050565b600061260182612614565b9050919050565b60008115159050919050565b600073ffffffffffffffffffffffffffffffffffffffff82169050919050565b6000819050919050565b82818337600083830152505050565b60005b8381101561266b578082015181840152602081019050612650565b8381111561267a576000848401525b50505050565b6000600282049050600182168061269857607f821691505b602082108114156126ac576126ab61275b565b5b50919050565b6126bb826127b9565b810181811067ffffffffffffffff821117156126da576126d961278a565b5b80604052505050565b60006126ee82612634565b91507fffffffffffffffffffffffffffffffffffffffffffffffffffffffffffffffff8214156127215761272061272c565b5b600182019050919050565b7f4e487b7100000000000000000000000000000000000000000000000000000000600052601160045260246000fd5b7f4e487b7100000000000000000000000000000000000000000000000000000000600052602260045260246000fd5b7f4e487b7100000000000000000000000000000000000000000000000000000000600052604160045260246000fd5b6000601f19601f8301169050919050565b7f496e76616c696420616464726573730000000000000000000000000000000000600082015250565b7f496e76616c69642073747564656e742061646472657373000000000000000000600082015250565b7f436572746966696361746520616c726561647920766572696669656400000000600082015250565b7f4950465320686173682063616e6e6f7420626520656d70747900000000000000600082015250565b7f436572746966696361746520646f6573206e6f74206578697374000000000000600082015250565b7f4f6e6c792061646d696e2063616e2063616c6c20746869732066756e6374696f60008201527f6e00000000000000000000000000000000000000000000000000000000000000602082015250565b6128ef816125f6565b81146128fa57600080fd5b50565b61290681612634565b811461291157600080fd5b5056fea264697066735822122020121378db4c4bef3558917a85bd1099437978ba4e9b5afbb0cb82cb31ec653864736f6c63430008020033",
  "immutableReferences": {},
  "source": "// SPDX-License-Identifier: UNLICENSED\r\npragma solidity ^0.8.0;\r\n\r\ncontract cert {\r\n    // Cu trc d liu cho chng ch\r\n    struct Certificate {\r\n        uint256 id;\r\n        address studentAddress;\r\n        string studentName;\r\n        string studentId;\r\n        string university;\r\n        uint256 issueDate;\r\n        bool isVerified;\r\n        address issuedBy;\r\n        string ipfsHash;\r\n    }\r\n\r\n    // Mapping  lu chng ch theo ID\r\n    mapping(uint256 => Certificate) public certificates;\r\n\r\n    // Mapping  lu danh sch ID chng ch ca tng sinh vin\r\n    mapping(address => uint256[]) public userCertificates;\r\n\r\n    // Mapping  nh x ipfsHash n certificateId\r\n    mapping(string => uint256) public ipfsToId;\r\n\r\n    // Bin m ID chng ch\r\n    uint256 private certificateIdCounter;\r\n\r\n    // S kin pht hnh chng ch\r\n    event CertificateIssued(uint256 indexed certificateId, address indexed studentAddress, uint256 issueDate, string ipfsHash);\r\n\r\n    // S kin xc minh chng ch\r\n    event CertificateVerified(uint256 indexed certificateId, bool status);\r\n\r\n    // a ch qun tr (trng hc)\r\n    address public admin;\r\n\r\n    // Constructor  thit lp admin\r\n    constructor() {\r\n        admin = msg.sender;\r\n        certificateIdCounter = 0; // Khi to counter\r\n    }\r\n\r\n    // Ch admin hoc Issuer c php gi\r\n    modifier onlyAdmin() {\r\n        require(msg.sender == admin, \"Only admin can call this function\");\r\n        _;\r\n    }\r\n\r\n    // Pht hnh chng ch\r\n    function issueCertificate(\r\n        address _studentAddress,\r\n        string memory _studentName,\r\n        string memory _studentId,\r\n        string memory _university,\r\n        uint256 _issueDate,\r\n        string memory _ipfsHash\r\n    ) public onlyAdmin {\r\n        require(_studentAddress != address(0), \"Invalid student address\");\r\n        require(bytes(_ipfsHash).length > 0, \"IPFS hash cannot be empty\");\r\n        certificateIdCounter++;\r\n        uint256 newCertificateId = certificateIdCounter;\r\n\r\n        certificates[newCertificateId] = Certificate(\r\n            newCertificateId,\r\n            _studentAddress,\r\n            _studentName,\r\n            _studentId,\r\n            _university,\r\n            _issueDate,\r\n            false, // isVerified mc nh l false\r\n            msg.sender,\r\n            _ipfsHash\r\n        );\r\n\r\n        // Gn ipfsHash n certificateId\r\n        ipfsToId[_ipfsHash] = newCertificateId;\r\n\r\n        // Thm certificateId vo danh sch ca sinh vin\r\n        userCertificates[_studentAddress].push(newCertificateId);\r\n\r\n        emit CertificateIssued(newCertificateId, _studentAddress, _issueDate, _ipfsHash);\r\n    }\r\n\r\n    // Kim tra tnh hp l ca chng ch v tr v thng tin\r\n    function isCertificateValid(string memory _ipfsHash) public view returns (\r\n        bool isValid,\r\n        uint256 id,\r\n        string memory studentName,\r\n        string memory studentId,\r\n        string memory university,\r\n        uint256 issueDate,\r\n        address issuedBy,\r\n        string memory ipfsHash\r\n    ) {\r\n        uint256 certificateId = ipfsToId[_ipfsHash];\r\n        if (certificateId == 0 || certificates[certificateId].id == 0) {\r\n            return (false, 0, \"\", \"\", \"\", 0, address(0), \"\");\r\n        }\r\n        Certificate memory certData = certificates[certificateId];\r\n        return (true, certData.id, certData.studentName, certData.studentId, certData.university, certData.issueDate, certData.issuedBy, certData.ipfsHash);\r\n    }\r\n\r\n    // Xc minh chng ch\r\n    function verifyCertificate(uint256 _certificateId) public onlyAdmin {\r\n        Certificate storage certData = certificates[_certificateId];\r\n        require(certData.id != 0, \"Certificate does not exist\");\r\n        require(!certData.isVerified, \"Certificate already verified\");\r\n        certData.isVerified = true;\r\n        emit CertificateVerified(_certificateId, true);\r\n    }\r\n\r\n    // Ly thng tin chng ch\r\n    function getCertificate(uint256 _certificateId) public view returns (\r\n        uint256 id,\r\n        string memory studentName,\r\n        string memory studentId,\r\n        string memory university,\r\n        uint256 issueDate,\r\n        bool isVerified,\r\n        address issuedBy,\r\n        string memory ipfsHash\r\n    ) {\r\n        Certificate memory certData = certificates[_certificateId];\r\n        require(certData.id != 0, \"Certificate does not exist\");\r\n        return (\r\n            certData.id,\r\n            certData.studentName,\r\n            certData.studentId,\r\n            certData.university,\r\n            certData.issueDate,\r\n            certData.isVerified,\r\n            certData.issuedBy,\r\n            certData.ipfsHash\r\n\r\n        );\r\n    }\r\n\r\n    // Ly danh sch ID chng ch ca sinh vin\r\n    function getUserCertificates(address _student) public view returns (uint256[] memory) {\r\n        return userCertificates[_student];\r\n    }\r\n\r\n\r\n\r\n    // Ly tt c chng ch (ch dnh cho admin)\r\n    function getAllCertificates() public view onlyAdmin returns (Certificate[] memory) {\r\n        Certificate[] memory allCerts = new Certificate[](certificateIdCounter);\r\n        for (uint256 i = 1; i <= certificateIdCounter; i++) {\r\n            if (certificates[i].id != 0) {\r\n                allCerts[i - 1] = certificates[i];\r\n            }\r\n        }\r\n        return allCerts;\r\n    }\r\n\r\n\r\n    \r\n    // Chuyn quyn admin (nu cn)\r\n    function transferAdmin(address _newAdmin) public onlyAdmin {\r\n        require(_newAdmin != address(0), \"Invalid address\");\r\n        admin = _newAdmin;\r\n    }\r\n}",
  "sourcePath": "D:\\Web\\blockchain\\app-vbcc\\contracts\\cert.sol",
  "compiler": {
    "name": "solc",
    "version": "0.8.2+commit.661d1103.Emscripten.clang"
  },
  "schemaVersion": "3.4.16",
  "updatedAt": "2025-08-25T04:01:26.530Z",
  "networkType": "ethereum",
  "devdoc": {
    "kind": "dev",
    "methods": {},
    "version": 1
  },
  "userdoc": {
    "kind": "user",
    "methods": {},
    "version": 1
  }
}